{
  "_format": "hh-sol-artifact-1",
  "contractName": "Events",
  "sourceName": "contracts/Events.sol",
  "abi": [
    {
      "inputs": [],
      "stateMutability": "nonpayable",
      "type": "constructor"
    },
    {
      "anonymous": false,
      "inputs": [
        {
          "indexed": true,
          "internalType": "address",
          "name": "token",
          "type": "address"
        },
        {
          "indexed": false,
          "internalType": "address",
          "name": "account",
          "type": "address"
        },
        {
          "indexed": false,
          "internalType": "bool",
          "name": "isBuy",
          "type": "bool"
        },
        {
          "indexed": false,
          "internalType": "uint256",
          "name": "userETHChangeAmount",
          "type": "uint256"
        },
        {
          "indexed": false,
          "internalType": "uint256",
          "name": "tokenChangeAmount",
          "type": "uint256"
        },
        {
          "indexed": false,
          "internalType": "uint256",
          "name": "currentEthAmount",
          "type": "uint256"
        },
        {
          "indexed": false,
          "internalType": "uint256",
          "name": "currentTokenAmount",
          "type": "uint256"
        },
        {
          "indexed": false,
          "internalType": "uint256",
          "name": "currentTokenPrice",
          "type": "uint256"
        }
      ],
      "name": "PumpFunEvent",
      "type": "event"
    },
    {
      "anonymous": false,
      "inputs": [
        {
          "indexed": true,
          "internalType": "address",
          "name": "token",
          "type": "address"
        },
        {
          "indexed": true,
          "internalType": "address",
          "name": "from",
          "type": "address"
        },
        {
          "indexed": true,
          "internalType": "address",
          "name": "to",
          "type": "address"
        },
        {
          "indexed": false,
          "internalType": "uint256",
          "name": "amount",
          "type": "uint256"
        }
      ],
      "name": "PumpFunTransfer",
      "type": "event"
    },
    {
      "inputs": [
        {
          "internalType": "address",
          "name": "account",
          "type": "address"
        },
        {
          "internalType": "bool",
          "name": "isBuy",
          "type": "bool"
        },
        {
          "internalType": "uint256",
          "name": "ethChangeAmount",
          "type": "uint256"
        },
        {
          "internalType": "uint256",
          "name": "tokenChangeAmount",
          "type": "uint256"
        },
        {
          "internalType": "uint256",
          "name": "currentEthAmount",
          "type": "uint256"
        },
        {
          "internalType": "uint256",
          "name": "currentTokenSold",
          "type": "uint256"
        },
        {
          "internalType": "uint256",
          "name": "currentTokenPrice",
          "type": "uint256"
        }
      ],
      "name": "emitPumpFunEvents",
      "outputs": [],
      "stateMutability": "nonpayable",
      "type": "function"
    },
    {
      "inputs": [
        {
          "internalType": "address",
          "name": "from",
          "type": "address"
        },
        {
          "internalType": "address",
          "name": "to",
          "type": "address"
        },
        {
          "internalType": "uint256",
          "name": "amount",
          "type": "uint256"
        }
      ],
      "name": "emitPumpFunTransfer",
      "outputs": [],
      "stateMutability": "nonpayable",
      "type": "function"
    },
    {
      "inputs": [],
      "name": "factory",
      "outputs": [
        {
          "internalType": "address",
          "name": "",
          "type": "address"
        }
      ],
      "stateMutability": "view",
      "type": "function"
    },
    {
      "inputs": [
        {
          "internalType": "address",
          "name": "",
          "type": "address"
        }
      ],
      "name": "isPumpToken",
      "outputs": [
        {
          "internalType": "bool",
          "name": "",
          "type": "bool"
        }
      ],
      "stateMutability": "view",
      "type": "function"
    },
    {
      "inputs": [
        {
          "internalType": "address",
          "name": "token",
          "type": "address"
        },
        {
          "internalType": "bool",
          "name": "value",
          "type": "bool"
        }
      ],
      "name": "setIsPumpToken",
      "outputs": [],
      "stateMutability": "nonpayable",
      "type": "function"
    }
  ],
  "bytecode": "0x608060405234801561001057600080fd5b5033600160006101000a81548173ffffffffffffffffffffffffffffffffffffffff021916908373ffffffffffffffffffffffffffffffffffffffff16021790555061088d806100616000396000f3fe608060405234801561001057600080fd5b50600436106100575760003560e01c8063315dc1ff1461005c57806341add333146100785780639e56197e146100a8578063c45a0155146100c4578063e2b23d90146100e2575b600080fd5b610076600480360381019061007191906104f9565b6100fe565b005b610092600480360381019061008d919061059b565b6101ec565b60405161009f91906105d7565b60405180910390f35b6100c260048036038101906100bd91906105f2565b61020c565b005b6100cc610318565b6040516100d99190610654565b60405180910390f35b6100fc60048036038101906100f7919061066f565b61033e565b005b6000803373ffffffffffffffffffffffffffffffffffffffff1673ffffffffffffffffffffffffffffffffffffffff16815260200190815260200160002060009054906101000a900460ff16610189576040517f08c379a000000000000000000000000000000000000000000000000000000000815260040161018090610732565b60405180910390fd5b3373ffffffffffffffffffffffffffffffffffffffff167f2eeec4afe3f3b7be21f85c4d8b522a9bcc91c6b567bd82c7f82466edc36c875a888888888888886040516101db9796959493929190610761565b60405180910390a250505050505050565b60006020528060005260406000206000915054906101000a900460ff1681565b6000803373ffffffffffffffffffffffffffffffffffffffff1673ffffffffffffffffffffffffffffffffffffffff16815260200190815260200160002060009054906101000a900460ff16610297576040517f08c379a000000000000000000000000000000000000000000000000000000000815260040161028e90610732565b60405180910390fd5b8173ffffffffffffffffffffffffffffffffffffffff168373ffffffffffffffffffffffffffffffffffffffff163373ffffffffffffffffffffffffffffffffffffffff167fd53121bd7053c7edf7101ce72a951df5b8328f8cc6ce248ebb952fdd4a87725a8460405161030b91906107d0565b60405180910390a4505050565b600160009054906101000a900473ffffffffffffffffffffffffffffffffffffffff1681565b600160009054906101000a900473ffffffffffffffffffffffffffffffffffffffff1673ffffffffffffffffffffffffffffffffffffffff163373ffffffffffffffffffffffffffffffffffffffff16146103ce576040517f08c379a00000000000000000000000000000000000000000000000000000000081526004016103c590610837565b60405180910390fd5b806000808473ffffffffffffffffffffffffffffffffffffffff1673ffffffffffffffffffffffffffffffffffffffff16815260200190815260200160002060006101000a81548160ff0219169083151502179055505050565b600080fd5b600073ffffffffffffffffffffffffffffffffffffffff82169050919050565b60006104588261042d565b9050919050565b6104688161044d565b811461047357600080fd5b50565b6000813590506104858161045f565b92915050565b60008115159050919050565b6104a08161048b565b81146104ab57600080fd5b50565b6000813590506104bd81610497565b92915050565b6000819050919050565b6104d6816104c3565b81146104e157600080fd5b50565b6000813590506104f3816104cd565b92915050565b600080600080600080600060e0888a03121561051857610517610428565b5b60006105268a828b01610476565b97505060206105378a828b016104ae565b96505060406105488a828b016104e4565b95505060606105598a828b016104e4565b945050608061056a8a828b016104e4565b93505060a061057b8a828b016104e4565b92505060c061058c8a828b016104e4565b91505092959891949750929550565b6000602082840312156105b1576105b0610428565b5b60006105bf84828501610476565b91505092915050565b6105d18161048b565b82525050565b60006020820190506105ec60008301846105c8565b92915050565b60008060006060848603121561060b5761060a610428565b5b600061061986828701610476565b935050602061062a86828701610476565b925050604061063b868287016104e4565b9150509250925092565b61064e8161044d565b82525050565b60006020820190506106696000830184610645565b92915050565b6000806040838503121561068657610685610428565b5b600061069485828601610476565b92505060206106a5858286016104ae565b9150509250929050565b600082825260208201905092915050565b7f4f6e6c792050756d7046756e20746f6b656e732063616e20656d69742065766560008201527f6e74730000000000000000000000000000000000000000000000000000000000602082015250565b600061071c6023836106af565b9150610727826106c0565b604082019050919050565b6000602082019050818103600083015261074b8161070f565b9050919050565b61075b816104c3565b82525050565b600060e082019050610776600083018a610645565b61078360208301896105c8565b6107906040830188610752565b61079d6060830187610752565b6107aa6080830186610752565b6107b760a0830185610752565b6107c460c0830184610752565b98975050505050505050565b60006020820190506107e56000830184610752565b92915050565b7f4f6e6c7920666163746f72792063616e2073657420697350756d70546f6b656e600082015250565b60006108216020836106af565b915061082c826107eb565b602082019050919050565b6000602082019050818103600083015261085081610814565b905091905056fea264697066735822122085ff69a16149ac9667d66304eb3093b189898ef5a7c3bb1099a3390a3cc047cb64736f6c63430008180033",
  "linkReferences": {},
  "deployedLinkReferences": {}
}