{
  "_format": "hh-sol-artifact-1",
  "contractName": "PumpFun",
  "sourceName": "contracts/PumpFun.sol",
  "abi": [
    {
      "inputs": [
        {
          "internalType": "string",
          "name": "name",
          "type": "string"
        },
        {
          "internalType": "string",
          "name": "symbol",
          "type": "string"
        },
        {
          "internalType": "address",
          "name": "_events",
          "type": "address"
        },
        {
          "internalType": "address",
          "name": "creator",
          "type": "address"
        }
      ],
      "stateMutability": "payable",
      "type": "constructor"
    },
    {
      "inputs": [
        {
          "internalType": "address",
          "name": "spender",
          "type": "address"
        },
        {
          "internalType": "uint256",
          "name": "allowance",
          "type": "uint256"
        },
        {
          "internalType": "uint256",
          "name": "needed",
          "type": "uint256"
        }
      ],
      "name": "ERC20InsufficientAllowance",
      "type": "error"
    },
    {
      "inputs": [
        {
          "internalType": "address",
          "name": "sender",
          "type": "address"
        },
        {
          "internalType": "uint256",
          "name": "balance",
          "type": "uint256"
        },
        {
          "internalType": "uint256",
          "name": "needed",
          "type": "uint256"
        }
      ],
      "name": "ERC20InsufficientBalance",
      "type": "error"
    },
    {
      "inputs": [
        {
          "internalType": "address",
          "name": "approver",
          "type": "address"
        }
      ],
      "name": "ERC20InvalidApprover",
      "type": "error"
    },
    {
      "inputs": [
        {
          "internalType": "address",
          "name": "receiver",
          "type": "address"
        }
      ],
      "name": "ERC20InvalidReceiver",
      "type": "error"
    },
    {
      "inputs": [
        {
          "internalType": "address",
          "name": "sender",
          "type": "address"
        }
      ],
      "name": "ERC20InvalidSender",
      "type": "error"
    },
    {
      "inputs": [
        {
          "internalType": "address",
          "name": "spender",
          "type": "address"
        }
      ],
      "name": "ERC20InvalidSpender",
      "type": "error"
    },
    {
      "inputs": [],
      "name": "ReentrancyGuardReentrantCall",
      "type": "error"
    },
    {
      "anonymous": false,
      "inputs": [
        {
          "indexed": true,
          "internalType": "address",
          "name": "owner",
          "type": "address"
        },
        {
          "indexed": true,
          "internalType": "address",
          "name": "spender",
          "type": "address"
        },
        {
          "indexed": false,
          "internalType": "uint256",
          "name": "value",
          "type": "uint256"
        }
      ],
      "name": "Approval",
      "type": "event"
    },
    {
      "anonymous": false,
      "inputs": [
        {
          "indexed": true,
          "internalType": "address",
          "name": "from",
          "type": "address"
        },
        {
          "indexed": true,
          "internalType": "address",
          "name": "to",
          "type": "address"
        },
        {
          "indexed": false,
          "internalType": "uint256",
          "name": "value",
          "type": "uint256"
        }
      ],
      "name": "Transfer",
      "type": "event"
    },
    {
      "anonymous": false,
      "inputs": [
        {
          "indexed": false,
          "internalType": "uint256",
          "name": "amount",
          "type": "uint256"
        },
        {
          "indexed": false,
          "internalType": "uint256",
          "name": "when",
          "type": "uint256"
        }
      ],
      "name": "Withdrawal",
      "type": "event"
    },
    {
      "inputs": [],
      "name": "FEE_PERCENTAGE",
      "outputs": [
        {
          "internalType": "uint256",
          "name": "",
          "type": "uint256"
        }
      ],
      "stateMutability": "view",
      "type": "function"
    },
    {
      "inputs": [],
      "name": "MAX_ETH_AMOUNT",
      "outputs": [
        {
          "internalType": "uint256",
          "name": "",
          "type": "uint256"
        }
      ],
      "stateMutability": "view",
      "type": "function"
    },
    {
      "inputs": [],
      "name": "MAX_SUPPLY",
      "outputs": [
        {
          "internalType": "uint256",
          "name": "",
          "type": "uint256"
        }
      ],
      "stateMutability": "view",
      "type": "function"
    },
    {
      "inputs": [],
      "name": "UNISWAP_V2_FACTORY",
      "outputs": [
        {
          "internalType": "address",
          "name": "",
          "type": "address"
        }
      ],
      "stateMutability": "view",
      "type": "function"
    },
    {
      "inputs": [],
      "name": "UNISWAP_V2_ROUTER",
      "outputs": [
        {
          "internalType": "address",
          "name": "",
          "type": "address"
        }
      ],
      "stateMutability": "view",
      "type": "function"
    },
    {
      "inputs": [
        {
          "internalType": "address",
          "name": "owner",
          "type": "address"
        },
        {
          "internalType": "address",
          "name": "spender",
          "type": "address"
        }
      ],
      "name": "allowance",
      "outputs": [
        {
          "internalType": "uint256",
          "name": "",
          "type": "uint256"
        }
      ],
      "stateMutability": "view",
      "type": "function"
    },
    {
      "inputs": [
        {
          "internalType": "address",
          "name": "spender",
          "type": "address"
        },
        {
          "internalType": "uint256",
          "name": "value",
          "type": "uint256"
        }
      ],
      "name": "approve",
      "outputs": [
        {
          "internalType": "bool",
          "name": "",
          "type": "bool"
        }
      ],
      "stateMutability": "nonpayable",
      "type": "function"
    },
    {
      "inputs": [
        {
          "internalType": "address",
          "name": "account",
          "type": "address"
        }
      ],
      "name": "balanceOf",
      "outputs": [
        {
          "internalType": "uint256",
          "name": "",
          "type": "uint256"
        }
      ],
      "stateMutability": "view",
      "type": "function"
    },
    {
      "inputs": [
        {
          "internalType": "uint256",
          "name": "slippage",
          "type": "uint256"
        }
      ],
      "name": "buy",
      "outputs": [],
      "stateMutability": "payable",
      "type": "function"
    },
    {
      "inputs": [
        {
          "internalType": "address",
          "name": "receiver",
          "type": "address"
        },
        {
          "internalType": "uint256",
          "name": "buyEthAmount",
          "type": "uint256"
        }
      ],
      "name": "buy_internal",
      "outputs": [],
      "stateMutability": "nonpayable",
      "type": "function"
    },
    {
      "inputs": [
        {
          "internalType": "uint256",
          "name": "tokenAmount",
          "type": "uint256"
        }
      ],
      "name": "calculateEthAmount",
      "outputs": [
        {
          "internalType": "uint256",
          "name": "",
          "type": "uint256"
        }
      ],
      "stateMutability": "view",
      "type": "function"
    },
    {
      "inputs": [
        {
          "internalType": "uint256",
          "name": "buyEthAmount",
          "type": "uint256"
        }
      ],
      "name": "calculateTokenAmount",
      "outputs": [
        {
          "internalType": "uint256",
          "name": "",
          "type": "uint256"
        }
      ],
      "stateMutability": "view",
      "type": "function"
    },
    {
      "inputs": [],
      "name": "decimals",
      "outputs": [
        {
          "internalType": "uint8",
          "name": "",
          "type": "uint8"
        }
      ],
      "stateMutability": "view",
      "type": "function"
    },
    {
      "inputs": [],
      "name": "ethAmount",
      "outputs": [
        {
          "internalType": "uint256",
          "name": "",
          "type": "uint256"
        }
      ],
      "stateMutability": "view",
      "type": "function"
    },
    {
      "inputs": [],
      "name": "events",
      "outputs": [
        {
          "internalType": "contract IEvents",
          "name": "",
          "type": "address"
        }
      ],
      "stateMutability": "view",
      "type": "function"
    },
    {
      "inputs": [],
      "name": "factory",
      "outputs": [
        {
          "internalType": "contract IFactory",
          "name": "",
          "type": "address"
        }
      ],
      "stateMutability": "view",
      "type": "function"
    },
    {
      "inputs": [],
      "name": "getCurrentTokenPrice",
      "outputs": [
        {
          "internalType": "uint256",
          "name": "",
          "type": "uint256"
        }
      ],
      "stateMutability": "view",
      "type": "function"
    },
    {
      "inputs": [],
      "name": "getMaxEthToBuy",
      "outputs": [
        {
          "internalType": "uint256",
          "name": "",
          "type": "uint256"
        }
      ],
      "stateMutability": "view",
      "type": "function"
    },
    {
      "inputs": [],
      "name": "initialized",
      "outputs": [
        {
          "internalType": "bool",
          "name": "",
          "type": "bool"
        }
      ],
      "stateMutability": "view",
      "type": "function"
    },
    {
      "inputs": [],
      "name": "isPaused",
      "outputs": [
        {
          "internalType": "bool",
          "name": "",
          "type": "bool"
        }
      ],
      "stateMutability": "view",
      "type": "function"
    },
    {
      "inputs": [],
      "name": "name",
      "outputs": [
        {
          "internalType": "string",
          "name": "",
          "type": "string"
        }
      ],
      "stateMutability": "view",
      "type": "function"
    },
    {
      "inputs": [],
      "name": "owner",
      "outputs": [
        {
          "internalType": "address payable",
          "name": "",
          "type": "address"
        }
      ],
      "stateMutability": "view",
      "type": "function"
    },
    {
      "inputs": [
        {
          "internalType": "uint256",
          "name": "amount",
          "type": "uint256"
        },
        {
          "internalType": "uint256",
          "name": "slippage",
          "type": "uint256"
        }
      ],
      "name": "sell",
      "outputs": [],
      "stateMutability": "nonpayable",
      "type": "function"
    },
    {
      "inputs": [],
      "name": "symbol",
      "outputs": [
        {
          "internalType": "string",
          "name": "",
          "type": "string"
        }
      ],
      "stateMutability": "view",
      "type": "function"
    },
    {
      "inputs": [],
      "name": "tokensSold",
      "outputs": [
        {
          "internalType": "uint256",
          "name": "",
          "type": "uint256"
        }
      ],
      "stateMutability": "view",
      "type": "function"
    },
    {
      "inputs": [],
      "name": "totalSupply",
      "outputs": [
        {
          "internalType": "uint256",
          "name": "",
          "type": "uint256"
        }
      ],
      "stateMutability": "view",
      "type": "function"
    },
    {
      "inputs": [
        {
          "internalType": "address",
          "name": "to",
          "type": "address"
        },
        {
          "internalType": "uint256",
          "name": "value",
          "type": "uint256"
        }
      ],
      "name": "transfer",
      "outputs": [
        {
          "internalType": "bool",
          "name": "",
          "type": "bool"
        }
      ],
      "stateMutability": "nonpayable",
      "type": "function"
    },
    {
      "inputs": [
        {
          "internalType": "address",
          "name": "from",
          "type": "address"
        },
        {
          "internalType": "address",
          "name": "to",
          "type": "address"
        },
        {
          "internalType": "uint256",
          "name": "value",
          "type": "uint256"
        }
      ],
      "name": "transferFrom",
      "outputs": [
        {
          "internalType": "bool",
          "name": "",
          "type": "bool"
        }
      ],
      "stateMutability": "nonpayable",
      "type": "function"
    }
  ],
  "bytecode": "0x608060405260405162004d2a38038062004d2a83398181016040528101906200002991906200116b565b838381600390816200003c919062001466565b5080600490816200004e919062001466565b505050600160058190555081600760006101000a81548173ffffffffffffffffffffffffffffffffffffffff021916908373ffffffffffffffffffffffffffffffffffffffff160217905550620000b8306b033b2e3c9fd0803ce80000006200012060201b60201c565b33600860006101000a81548173ffffffffffffffffffffffffffffffffffffffff021916908373ffffffffffffffffffffffffffffffffffffffff16021790555060003411156200011657620001158134620001ad60201b60201c565b5b5050505062001bce565b600073ffffffffffffffffffffffffffffffffffffffff168273ffffffffffffffffffffffffffffffffffffffff1603620001955760006040517fec442f050000000000000000000000000000000000000000000000000000000081526004016200018c91906200155e565b60405180910390fd5b620001a9600083836200065e60201b60201c565b5050565b600760159054906101000a900460ff161562000200576040517f08c379a0000000000000000000000000000000000000000000000000000000008152600401620001f790620015dc565b60405180910390fd5b600760149054906101000a900460ff161562000253576040517f08c379a00000000000000000000000000000000000000000000000000000000081526004016200024a906200164e565b60405180910390fd5b600060646001836200026691906200169f565b62000272919062001719565b90506000600860009054906101000a900473ffffffffffffffffffffffffffffffffffffffff1673ffffffffffffffffffffffffffffffffffffffff1663b3f006746040518163ffffffff1660e01b8152600401602060405180830381865afa158015620002e4573d6000803e3d6000fd5b505050506040513d601f19601f820116820180604052508101906200030a919062001751565b73ffffffffffffffffffffffffffffffffffffffff16826040516200032f90620017b8565b60006040518083038185875af1925050503d80600081146200036e576040519150601f19603f3d011682016040523d82523d6000602084013e62000373565b606091505b5050905080620003ba576040517f08c379a0000000000000000000000000000000000000000000000000000000008152600401620003b19062001845565b60405180910390fd5b60008284620003ca919062001867565b90506000620003df826200070b60201b60201c565b905081600a6000828254620003f59190620018a2565b925050819055506000811162000442576040517f08c379a000000000000000000000000000000000000000000000000000000000815260040162000439906200192d565b60405180910390fd5b620004553087836200077560201b60201c565b8060096000828254620004699190620018a2565b92505081905550600760009054906101000a900473ffffffffffffffffffffffffffffffffffffffff1673ffffffffffffffffffffffffffffffffffffffff1663315dc1ff8760018585600a54600954620004c96200087760201b60201c565b6040518863ffffffff1660e01b8152600401620004ed97969594939291906200197d565b600060405180830381600087803b1580156200050857600080fd5b505af11580156200051d573d6000803e3d6000fd5b5050505067d02ab486cedc0000600a54106200063b576001600760146101000a81548160ff0219169083151502179055506200058530734752ba5dbc23f44d87826276bf6fd6b1c372ad246200057930620008da60201b60201c565b6200092260201b60201c565b734752ba5dbc23f44d87826276bf6fd6b1c372ad2473ffffffffffffffffffffffffffffffffffffffff1663f305d7194730620005c830620008da60201b60201c565b6000806000426040518863ffffffff1660e01b8152600401620005f19695949392919062001a3d565b60606040518083038185885af115801562000610573d6000803e3d6000fd5b50505050506040513d601f19601f8201168201806040525081019062000637919062001adb565b5050505b6001600760156101000a81548160ff021916908315150217905550505050505050565b620006718383836200093c60201b60201c565b600760009054906101000a900473ffffffffffffffffffffffffffffffffffffffff1673ffffffffffffffffffffffffffffffffffffffff16639e56197e8484846040518463ffffffff1660e01b8152600401620006d29392919062001b37565b600060405180830381600087803b158015620006ed57600080fd5b505af115801562000702573d6000803e3d6000fd5b50505050505050565b6000806009549050600062000728600a5462000b6c60201b60201c565b62000748600a54866200073c9190620018a2565b62000b6c60201b60201c565b62000754919062001867565b6702ddd87149349e006200076991906200169f565b90508092505050919050565b600073ffffffffffffffffffffffffffffffffffffffff168373ffffffffffffffffffffffffffffffffffffffff1603620007ea5760006040517f96c6fd1e000000000000000000000000000000000000000000000000000000008152600401620007e191906200155e565b60405180910390fd5b600073ffffffffffffffffffffffffffffffffffffffff168273ffffffffffffffffffffffffffffffffffffffff16036200085f5760006040517fec442f050000000000000000000000000000000000000000000000000000000081526004016200085691906200155e565b60405180910390fd5b620008728383836200065e60201b60201c565b505050565b6000806702ddd87149349e00905060006200089a600a5462000b6c60201b60201c565b9050600082670de0b6b3a7640000836002620008b791906200169f565b620008c391906200169f565b620008cf919062001719565b905080935050505090565b60008060008373ffffffffffffffffffffffffffffffffffffffff1673ffffffffffffffffffffffffffffffffffffffff168152602001908152602001600020549050919050565b62000937838383600162000c8f60201b60201c565b505050565b600073ffffffffffffffffffffffffffffffffffffffff168373ffffffffffffffffffffffffffffffffffffffff160362000992578060026000828254620009859190620018a2565b9250508190555062000a68565b60008060008573ffffffffffffffffffffffffffffffffffffffff1673ffffffffffffffffffffffffffffffffffffffff1681526020019081526020016000205490508181101562000a21578381836040517fe450d38c00000000000000000000000000000000000000000000000000000000815260040162000a189392919062001b74565b60405180910390fd5b8181036000808673ffffffffffffffffffffffffffffffffffffffff1673ffffffffffffffffffffffffffffffffffffffff16815260200190815260200160002081905550505b600073ffffffffffffffffffffffffffffffffffffffff168273ffffffffffffffffffffffffffffffffffffffff160362000ab3578060026000828254039250508190555062000b00565b806000808473ffffffffffffffffffffffffffffffffffffffff1673ffffffffffffffffffffffffffffffffffffffff168152602001908152602001600020600082825401925050819055505b8173ffffffffffffffffffffffffffffffffffffffff168373ffffffffffffffffffffffffffffffffffffffff167fddf252ad1be2c89b69c2b068fc378daa952ba7f163c4a11628f55a4df523b3ef8360405162000b5f919062001bb1565b60405180910390a3505050565b600080820362000b80576000905062000c8a565b6000600162000b958462000e6f60201b60201c565b901c6001901b9050600181848162000bb25762000bb1620016ea565b5b048201901c9050600181848162000bce5762000bcd620016ea565b5b048201901c9050600181848162000bea5762000be9620016ea565b5b048201901c9050600181848162000c065762000c05620016ea565b5b048201901c9050600181848162000c225762000c21620016ea565b5b048201901c9050600181848162000c3e5762000c3d620016ea565b5b048201901c9050600181848162000c5a5762000c59620016ea565b5b048201901c905062000c868182858162000c795762000c78620016ea565b5b0462000f5860201b60201c565b9150505b919050565b600073ffffffffffffffffffffffffffffffffffffffff168473ffffffffffffffffffffffffffffffffffffffff160362000d045760006040517fe602df0500000000000000000000000000000000000000000000000000000000815260040162000cfb91906200155e565b60405180910390fd5b600073ffffffffffffffffffffffffffffffffffffffff168373ffffffffffffffffffffffffffffffffffffffff160362000d795760006040517f94280d6200000000000000000000000000000000000000000000000000000000815260040162000d7091906200155e565b60405180910390fd5b81600160008673ffffffffffffffffffffffffffffffffffffffff1673ffffffffffffffffffffffffffffffffffffffff16815260200190815260200160002060008573ffffffffffffffffffffffffffffffffffffffff1673ffffffffffffffffffffffffffffffffffffffff16815260200190815260200160002081905550801562000e69578273ffffffffffffffffffffffffffffffffffffffff168473ffffffffffffffffffffffffffffffffffffffff167f8c5be1e5ebec7d5bd14f71427d1e84f3dd0314c0f7b2291e5b200ac8c7c3b9258460405162000e60919062001bb1565b60405180910390a35b50505050565b600080600090506000608084901c111562000e9257608083901c92506080810190505b6000604084901c111562000eae57604083901c92506040810190505b6000602084901c111562000eca57602083901c92506020810190505b6000601084901c111562000ee657601083901c92506010810190505b6000600884901c111562000f0257600883901c92506008810190505b6000600484901c111562000f1e57600483901c92506004810190505b6000600284901c111562000f3a57600283901c92506002810190505b6000600184901c111562000f4f576001810190505b80915050919050565b600081831062000f69578162000f6b565b825b905092915050565b6000604051905090565b600080fd5b600080fd5b600080fd5b600080fd5b6000601f19601f8301169050919050565b7f4e487b7100000000000000000000000000000000000000000000000000000000600052604160045260246000fd5b62000fdc8262000f91565b810181811067ffffffffffffffff8211171562000ffe5762000ffd62000fa2565b5b80604052505050565b60006200101362000f73565b905062001021828262000fd1565b919050565b600067ffffffffffffffff82111562001044576200104362000fa2565b5b6200104f8262000f91565b9050602081019050919050565b60005b838110156200107c5780820151818401526020810190506200105f565b60008484015250505050565b60006200109f620010998462001026565b62001007565b905082815260208101848484011115620010be57620010bd62000f8c565b5b620010cb8482856200105c565b509392505050565b600082601f830112620010eb57620010ea62000f87565b5b8151620010fd84826020860162001088565b91505092915050565b600073ffffffffffffffffffffffffffffffffffffffff82169050919050565b6000620011338262001106565b9050919050565b620011458162001126565b81146200115157600080fd5b50565b60008151905062001165816200113a565b92915050565b6000806000806080858703121562001188576200118762000f7d565b5b600085015167ffffffffffffffff811115620011a957620011a862000f82565b5b620011b787828801620010d3565b945050602085015167ffffffffffffffff811115620011db57620011da62000f82565b5b620011e987828801620010d3565b9350506040620011fc8782880162001154565b92505060606200120f8782880162001154565b91505092959194509250565b600081519050919050565b7f4e487b7100000000000000000000000000000000000000000000000000000000600052602260045260246000fd5b600060028204905060018216806200126e57607f821691505b60208210810362001284576200128362001226565b5b50919050565b60008190508160005260206000209050919050565b60006020601f8301049050919050565b600082821b905092915050565b600060088302620012ee7fffffffffffffffffffffffffffffffffffffffffffffffffffffffffffffffff82620012af565b620012fa8683620012af565b95508019841693508086168417925050509392505050565b6000819050919050565b6000819050919050565b600062001347620013416200133b8462001312565b6200131c565b62001312565b9050919050565b6000819050919050565b620013638362001326565b6200137b62001372826200134e565b848454620012bc565b825550505050565b600090565b6200139262001383565b6200139f81848462001358565b505050565b5b81811015620013c757620013bb60008262001388565b600181019050620013a5565b5050565b601f8211156200141657620013e0816200128a565b620013eb846200129f565b81016020851015620013fb578190505b620014136200140a856200129f565b830182620013a4565b50505b505050565b600082821c905092915050565b60006200143b600019846008026200141b565b1980831691505092915050565b600062001456838362001428565b9150826002028217905092915050565b62001471826200121b565b67ffffffffffffffff8111156200148d576200148c62000fa2565b5b62001499825462001255565b620014a6828285620013cb565b600060209050601f831160018114620014de5760008415620014c9578287015190505b620014d5858262001448565b86555062001545565b601f198416620014ee866200128a565b60005b828110156200151857848901518255600182019150602085019450602081019050620014f1565b8683101562001538578489015162001534601f89168262001428565b8355505b6001600288020188555050505b505050505050565b620015588162001126565b82525050565b60006020820190506200157560008301846200154d565b92915050565b600082825260208201905092915050565b7f50756d7046756e20616c726561647920696e697469616c697a65640000000000600082015250565b6000620015c4601b836200157b565b9150620015d1826200158c565b602082019050919050565b60006020820190508181036000830152620015f781620015b5565b9050919050565b7f426f6e64696e6720637572766520706861736520656e64656400000000000000600082015250565b6000620016366019836200157b565b91506200164382620015fe565b602082019050919050565b60006020820190508181036000830152620016698162001627565b9050919050565b7f4e487b7100000000000000000000000000000000000000000000000000000000600052601160045260246000fd5b6000620016ac8262001312565b9150620016b98362001312565b9250828202620016c98162001312565b91508282048414831517620016e357620016e262001670565b5b5092915050565b7f4e487b7100000000000000000000000000000000000000000000000000000000600052601260045260246000fd5b6000620017268262001312565b9150620017338362001312565b925082620017465762001745620016ea565b5b828204905092915050565b6000602082840312156200176a576200176962000f7d565b5b60006200177a8482850162001154565b91505092915050565b600081905092915050565b50565b6000620017a060008362001783565b9150620017ad826200178e565b600082019050919050565b6000620017c58262001791565b9150819050919050565b7f466565207472616e7366657220746f206665655265636569766572206661696c60008201527f6564000000000000000000000000000000000000000000000000000000000000602082015250565b60006200182d6022836200157b565b91506200183a82620017cf565b604082019050919050565b6000602082019050818103600083015262001860816200181e565b9050919050565b6000620018748262001312565b9150620018818362001312565b92508282039050818111156200189c576200189b62001670565b5b92915050565b6000620018af8262001312565b9150620018bc8362001312565b9250828201905080821115620018d757620018d662001670565b5b92915050565b7f4e6f7420656e6f756768204554482073656e7400000000000000000000000000600082015250565b6000620019156013836200157b565b91506200192282620018dd565b602082019050919050565b60006020820190508181036000830152620019488162001906565b9050919050565b60008115159050919050565b62001966816200194f565b82525050565b620019778162001312565b82525050565b600060e08201905062001994600083018a6200154d565b620019a360208301896200195b565b620019b260408301886200196c565b620019c160608301876200196c565b620019d060808301866200196c565b620019df60a08301856200196c565b620019ee60c08301846200196c565b98975050505050505050565b6000819050919050565b600062001a2562001a1f62001a1984620019fa565b6200131c565b62001312565b9050919050565b62001a378162001a04565b82525050565b600060c08201905062001a5460008301896200154d565b62001a6360208301886200196c565b62001a72604083018762001a2c565b62001a81606083018662001a2c565b62001a9060808301856200154d565b62001a9f60a08301846200196c565b979650505050505050565b62001ab58162001312565b811462001ac157600080fd5b50565b60008151905062001ad58162001aaa565b92915050565b60008060006060848603121562001af75762001af662000f7d565b5b600062001b078682870162001ac4565b935050602062001b1a8682870162001ac4565b925050604062001b2d8682870162001ac4565b9150509250925092565b600060608201905062001b4e60008301866200154d565b62001b5d60208301856200154d565b62001b6c60408301846200196c565b949350505050565b600060608201905062001b8b60008301866200154d565b62001b9a60208301856200196c565b62001ba960408301846200196c565b949350505050565b600060208201905062001bc860008301846200196c565b92915050565b61314c8062001bde6000396000f3fe6080604052600436106101b65760003560e01c806395d89b41116100ec578063c31fd9de1161008a578063d79875eb11610064578063d79875eb1461062d578063d96a094a14610656578063dd62ed3e14610672578063f751758b146106af576101b6565b8063c31fd9de146105ae578063c45a0155146105d7578063c98166c014610602576101b6565b8063a82ed9ec116100c6578063a82ed9ec146104f0578063a9059cbb1461051b578063b187bd2614610558578063b5f8558c14610583576101b6565b806395d89b411461045d57806399d8fae314610488578063a24bcf46146104b3576101b6565b8063289692e811610159578063518ab2a811610133578063518ab2a81461038d57806370a08231146103b85780638542bdff146103f55780638da5cb5b14610432576101b6565b8063289692e81461030c578063313ce5671461033757806332cb6b0c14610362576101b6565b8063095ea7b311610195578063095ea7b31461023c578063158ef93e1461027957806318160ddd146102a457806323b872dd146102cf576101b6565b80620b46f8146101bb5780630145c357146101e657806306fdde0314610211575b600080fd5b3480156101c757600080fd5b506101d06106da565b6040516101dd91906122e6565b60405180910390f35b3480156101f257600080fd5b506101fb6106df565b60405161020891906122e6565b60405180910390f35b34801561021d57600080fd5b5061022661074b565b6040516102339190612391565b60405180910390f35b34801561024857600080fd5b50610263600480360381019061025e9190612442565b6107dd565b604051610270919061249d565b60405180910390f35b34801561028557600080fd5b5061028e610800565b60405161029b919061249d565b60405180910390f35b3480156102b057600080fd5b506102b9610813565b6040516102c691906122e6565b60405180910390f35b3480156102db57600080fd5b506102f660048036038101906102f191906124b8565b61081d565b604051610303919061249d565b60405180910390f35b34801561031857600080fd5b5061032161084c565b60405161032e91906122e6565b60405180910390f35b34801561034357600080fd5b5061034c610858565b6040516103599190612527565b60405180910390f35b34801561036e57600080fd5b50610377610861565b60405161038491906122e6565b60405180910390f35b34801561039957600080fd5b506103a2610871565b6040516103af91906122e6565b60405180910390f35b3480156103c457600080fd5b506103df60048036038101906103da9190612542565b610877565b6040516103ec91906122e6565b60405180910390f35b34801561040157600080fd5b5061041c6004803603810190610417919061256f565b6108bf565b60405161042991906122e6565b60405180910390f35b34801561043e57600080fd5b50610447610998565b60405161045491906125bd565b60405180910390f35b34801561046957600080fd5b506104726109be565b60405161047f9190612391565b60405180910390f35b34801561049457600080fd5b5061049d610a50565b6040516104aa91906125e7565b60405180910390f35b3480156104bf57600080fd5b506104da60048036038101906104d5919061256f565b610a68565b6040516104e791906122e6565b60405180910390f35b3480156104fc57600080fd5b50610505610abc565b60405161051291906125e7565b60405180910390f35b34801561052757600080fd5b50610542600480360381019061053d9190612442565b610ad4565b60405161054f919061249d565b60405180910390f35b34801561056457600080fd5b5061056d610af7565b60405161057a919061249d565b60405180910390f35b34801561058f57600080fd5b50610598610b0a565b6040516105a59190612661565b60405180910390f35b3480156105ba57600080fd5b506105d560048036038101906105d09190612442565b610b30565b005b3480156105e357600080fd5b506105ec610f8a565b6040516105f9919061269d565b60405180910390f35b34801561060e57600080fd5b50610617610fb0565b60405161062491906122e6565b60405180910390f35b34801561063957600080fd5b50610654600480360381019061064f91906126b8565b610fb6565b005b610670600480360381019061066b919061256f565b61147a565b005b34801561067e57600080fd5b50610699600480360381019061069491906126f8565b61196f565b6040516106a691906122e6565b60405180910390f35b3480156106bb57600080fd5b506106c46119f6565b6040516106d191906122e6565b60405180910390f35b600181565b6000600760149054906101000a900460ff16156106ff5760009050610748565b6000600a5467d02ab486cedc00006107179190612767565b90506000600160646107299190612767565b606483610736919061279b565b610740919061280c565b905080925050505b90565b60606003805461075a9061286c565b80601f01602080910402602001604051908101604052809291908181526020018280546107869061286c565b80156107d35780601f106107a8576101008083540402835291602001916107d3565b820191906000526020600020905b8154815290600101906020018083116107b657829003601f168201915b5050505050905090565b6000806107e8611a4b565b90506107f5818585611a53565b600191505092915050565b600760159054906101000a900460ff1681565b6000600254905090565b600080610828611a4b565b9050610835858285611a65565b610840858585611af9565b60019150509392505050565b67d02ab486cedc000081565b60006012905090565b6b033b2e3c9fd0803ce800000081565b60095481565b60008060008373ffffffffffffffffffffffffffffffffffffffff1673ffffffffffffffffffffffffffffffffffffffff168152602001908152602001600020549050919050565b6000806009549050600083826108d59190612767565b90506000670de0b6b3a76400008060026702ddd87149349e00670de0b6b3a764000087610902919061279b565b61090c919061280c565b61091691906129d0565b610920919061280c565b61092a919061280c565b90506000670de0b6b3a76400008060026702ddd87149349e00670de0b6b3a764000087610957919061279b565b610961919061280c565b61096b91906129d0565b610975919061280c565b61097f919061280c565b9050808261098d9190612767565b945050505050919050565b600660009054906101000a900473ffffffffffffffffffffffffffffffffffffffff1681565b6060600480546109cd9061286c565b80601f01602080910402602001604051908101604052809291908181526020018280546109f99061286c565b8015610a465780601f10610a1b57610100808354040283529160200191610a46565b820191906000526020600020905b815481529060010190602001808311610a2957829003601f168201915b5050505050905090565b738909dc15e40173ff4699343b6eb8132c65e18ec681565b60008060095490506000610a7d600a54611bed565b610a93600a5486610a8e9190612a1b565b611bed565b610a9d9190612767565b6702ddd87149349e00610ab0919061279b565b90508092505050919050565b734752ba5dbc23f44d87826276bf6fd6b1c372ad2481565b600080610adf611a4b565b9050610aec818585611af9565b600191505092915050565b600760149054906101000a900460ff1681565b600760009054906101000a900473ffffffffffffffffffffffffffffffffffffffff1681565b600760159054906101000a900460ff1615610b80576040517f08c379a0000000000000000000000000000000000000000000000000000000008152600401610b7790612a9b565b60405180910390fd5b600760149054906101000a900460ff1615610bd0576040517f08c379a0000000000000000000000000000000000000000000000000000000008152600401610bc790612b07565b60405180910390fd5b60006064600183610be1919061279b565b610beb919061280c565b90506000600860009054906101000a900473ffffffffffffffffffffffffffffffffffffffff1673ffffffffffffffffffffffffffffffffffffffff1663b3f006746040518163ffffffff1660e01b8152600401602060405180830381865afa158015610c5c573d6000803e3d6000fd5b505050506040513d601f19601f82011682018060405250810190610c809190612b3c565b73ffffffffffffffffffffffffffffffffffffffff1682604051610ca390612b9a565b60006040518083038185875af1925050503d8060008114610ce0576040519150601f19603f3d011682016040523d82523d6000602084013e610ce5565b606091505b5050905080610d29576040517f08c379a0000000000000000000000000000000000000000000000000000000008152600401610d2090612c21565b60405180910390fd5b60008284610d379190612767565b90506000610d4482610a68565b905081600a6000828254610d589190612a1b565b9250508190555060008111610da2576040517f08c379a0000000000000000000000000000000000000000000000000000000008152600401610d9990612c8d565b60405180910390fd5b610dad308783611af9565b8060096000828254610dbf9190612a1b565b92505081905550600760009054906101000a900473ffffffffffffffffffffffffffffffffffffffff1673ffffffffffffffffffffffffffffffffffffffff1663315dc1ff8760018585600a54600954610e176119f6565b6040518863ffffffff1660e01b8152600401610e399796959493929190612cad565b600060405180830381600087803b158015610e5357600080fd5b505af1158015610e67573d6000803e3d6000fd5b5050505067d02ab486cedc0000600a5410610f67576001600760146101000a81548160ff021916908315150217905550610ebe30734752ba5dbc23f44d87826276bf6fd6b1c372ad24610eb930610877565b611a53565b734752ba5dbc23f44d87826276bf6fd6b1c372ad2473ffffffffffffffffffffffffffffffffffffffff1663f305d7194730610ef930610877565b6000806000426040518863ffffffff1660e01b8152600401610f2096959493929190612d57565b60606040518083038185885af1158015610f3e573d6000803e3d6000fd5b50505050506040513d601f19601f82011682018060405250810190610f639190612dcd565b5050505b6001600760156101000a81548160ff021916908315150217905550505050505050565b600860009054906101000a900473ffffffffffffffffffffffffffffffffffffffff1681565b600a5481565b610fbe611ce6565b600760149054906101000a900460ff161561100e576040517f08c379a000000000000000000000000000000000000000000000000000000000815260040161100590612b07565b60405180910390fd5b600060095411611053576040517f08c379a000000000000000000000000000000000000000000000000000000000815260040161104a90612e6c565b60405180910390fd5b8161105d33610877565b101561109e576040517f08c379a000000000000000000000000000000000000000000000000000000000815260040161109590612ed8565b60405180910390fd5b60006110a9836108bf565b9050600083670de0b6b3a7640000836110c2919061279b565b6110cc919061280c565b905060006110d86119f6565b90506000612710856127106110ed9190612767565b836110f8919061279b565b611102919061280c565b905080831015611147576040517f08c379a000000000000000000000000000000000000000000000000000000000815260040161113e90612f44565b60405180910390fd5b60006064600186611158919061279b565b611162919061280c565b90506000600860009054906101000a900473ffffffffffffffffffffffffffffffffffffffff1673ffffffffffffffffffffffffffffffffffffffff1663b3f006746040518163ffffffff1660e01b8152600401602060405180830381865afa1580156111d3573d6000803e3d6000fd5b505050506040513d601f19601f820116820180604052508101906111f79190612b3c565b73ffffffffffffffffffffffffffffffffffffffff168260405161121a90612b9a565b60006040518083038185875af1925050503d8060008114611257576040519150601f19603f3d011682016040523d82523d6000602084013e61125c565b606091505b50509050806112a0576040517f08c379a000000000000000000000000000000000000000000000000000000000815260040161129790612c21565b60405180910390fd5b60006112ab30610877565b83886112b79190612767565b116112cd5782876112c89190612767565b6112d7565b6112d630610877565b5b90506112e433308b611af9565b88600960008282546112f69190612767565b925050819055503373ffffffffffffffffffffffffffffffffffffffff168160405161132190612b9a565b60006040518083038185875af1925050503d806000811461135e576040519150601f19603f3d011682016040523d82523d6000602084013e611363565b606091505b505080925050816113a9576040517f08c379a00000000000000000000000000000000000000000000000000000000081526004016113a090612fb0565b60405180910390fd5b86600a60008282546113bb9190612767565b92505081905550600760009054906101000a900473ffffffffffffffffffffffffffffffffffffffff1673ffffffffffffffffffffffffffffffffffffffff1663315dc1ff336000848d600a546009546114136119f6565b6040518863ffffffff1660e01b81526004016114359796959493929190612cad565b600060405180830381600087803b15801561144f57600080fd5b505af1158015611463573d6000803e3d6000fd5b5050505050505050505050611476611d2c565b5050565b611482611ce6565b600760149054906101000a900460ff16156114d2576040517f08c379a00000000000000000000000000000000000000000000000000000000081526004016114c990612b07565b60405180910390fd5b600060646001346114e3919061279b565b6114ed919061280c565b90506000600860009054906101000a900473ffffffffffffffffffffffffffffffffffffffff1673ffffffffffffffffffffffffffffffffffffffff1663b3f006746040518163ffffffff1660e01b8152600401602060405180830381865afa15801561155e573d6000803e3d6000fd5b505050506040513d601f19601f820116820180604052508101906115829190612b3c565b73ffffffffffffffffffffffffffffffffffffffff16826040516115a590612b9a565b60006040518083038185875af1925050503d80600081146115e2576040519150601f19603f3d011682016040523d82523d6000602084013e6115e7565b606091505b505090508061162b576040517f08c379a000000000000000000000000000000000000000000000000000000000815260040161162290612c21565b60405180910390fd5b600082346116399190612767565b9050600061164682610a68565b9050600081670de0b6b3a76400008461165f919061279b565b611669919061280c565b905060006116756119f6565b905060006127108861271061168a9190612a1b565b83611695919061279b565b61169f919061280c565b90506000600a54146116ef57808311156116ee576040517f08c379a00000000000000000000000000000000000000000000000000000000081526004016116e59061301c565b60405180910390fd5b5b84600a60008282546117019190612a1b565b9250508190555067d02ab486cedc0000600a541115611755576040517f08c379a000000000000000000000000000000000000000000000000000000000815260040161174c90613088565b60405180910390fd5b60008411611798576040517f08c379a000000000000000000000000000000000000000000000000000000000815260040161178f90612c8d565b60405180910390fd5b6117a3303386611af9565b83600960008282546117b59190612a1b565b92505081905550600760009054906101000a900473ffffffffffffffffffffffffffffffffffffffff1673ffffffffffffffffffffffffffffffffffffffff1663315dc1ff3360018888600a5460095461180d6119f6565b6040518863ffffffff1660e01b815260040161182f9796959493929190612cad565b600060405180830381600087803b15801561184957600080fd5b505af115801561185d573d6000803e3d6000fd5b5050505067d02ab486cedc0000600a541061195d576001600760146101000a81548160ff0219169083151502179055506118b430734752ba5dbc23f44d87826276bf6fd6b1c372ad246118af30610877565b611a53565b734752ba5dbc23f44d87826276bf6fd6b1c372ad2473ffffffffffffffffffffffffffffffffffffffff1663f305d71947306118ef30610877565b6000806000426040518863ffffffff1660e01b815260040161191696959493929190612d57565b60606040518083038185885af1158015611934573d6000803e3d6000fd5b50505050506040513d601f19601f820116820180604052508101906119599190612dcd565b5050505b5050505050505061196c611d2c565b50565b6000600160008473ffffffffffffffffffffffffffffffffffffffff1673ffffffffffffffffffffffffffffffffffffffff16815260200190815260200160002060008373ffffffffffffffffffffffffffffffffffffffff1673ffffffffffffffffffffffffffffffffffffffff16815260200190815260200160002054905092915050565b6000806702ddd87149349e0090506000611a11600a54611bed565b9050600082670de0b6b3a7640000836002611a2c919061279b565b611a36919061279b565b611a40919061280c565b905080935050505090565b600033905090565b611a608383836001611d36565b505050565b6000611a71848461196f565b90507fffffffffffffffffffffffffffffffffffffffffffffffffffffffffffffffff8114611af35781811015611ae3578281836040517ffb8f41b2000000000000000000000000000000000000000000000000000000008152600401611ada939291906130a8565b60405180910390fd5b611af284848484036000611d36565b5b50505050565b600073ffffffffffffffffffffffffffffffffffffffff168373ffffffffffffffffffffffffffffffffffffffff1603611b6b5760006040517f96c6fd1e000000000000000000000000000000000000000000000000000000008152600401611b6291906125e7565b60405180910390fd5b600073ffffffffffffffffffffffffffffffffffffffff168273ffffffffffffffffffffffffffffffffffffffff1603611bdd5760006040517fec442f05000000000000000000000000000000000000000000000000000000008152600401611bd491906125e7565b60405180910390fd5b611be8838383611f0d565b505050565b6000808203611bff5760009050611ce1565b60006001611c0c84611fae565b901c6001901b90506001818481611c2657611c256127dd565b5b048201901c90506001818481611c3f57611c3e6127dd565b5b048201901c90506001818481611c5857611c576127dd565b5b048201901c90506001818481611c7157611c706127dd565b5b048201901c90506001818481611c8a57611c896127dd565b5b048201901c90506001818481611ca357611ca26127dd565b5b048201901c90506001818481611cbc57611cbb6127dd565b5b048201901c9050611cdd81828581611cd757611cd66127dd565b5b0461208f565b9150505b919050565b600260055403611d22576040517f3ee5aeb500000000000000000000000000000000000000000000000000000000815260040160405180910390fd5b6002600581905550565b6001600581905550565b600073ffffffffffffffffffffffffffffffffffffffff168473ffffffffffffffffffffffffffffffffffffffff1603611da85760006040517fe602df05000000000000000000000000000000000000000000000000000000008152600401611d9f91906125e7565b60405180910390fd5b600073ffffffffffffffffffffffffffffffffffffffff168373ffffffffffffffffffffffffffffffffffffffff1603611e1a5760006040517f94280d62000000000000000000000000000000000000000000000000000000008152600401611e1191906125e7565b60405180910390fd5b81600160008673ffffffffffffffffffffffffffffffffffffffff1673ffffffffffffffffffffffffffffffffffffffff16815260200190815260200160002060008573ffffffffffffffffffffffffffffffffffffffff1673ffffffffffffffffffffffffffffffffffffffff168152602001908152602001600020819055508015611f07578273ffffffffffffffffffffffffffffffffffffffff168473ffffffffffffffffffffffffffffffffffffffff167f8c5be1e5ebec7d5bd14f71427d1e84f3dd0314c0f7b2291e5b200ac8c7c3b92584604051611efe91906122e6565b60405180910390a35b50505050565b611f188383836120a8565b600760009054906101000a900473ffffffffffffffffffffffffffffffffffffffff1673ffffffffffffffffffffffffffffffffffffffff16639e56197e8484846040518463ffffffff1660e01b8152600401611f77939291906130df565b600060405180830381600087803b158015611f9157600080fd5b505af1158015611fa5573d6000803e3d6000fd5b50505050505050565b600080600090506000608084901c1115611fd057608083901c92506080810190505b6000604084901c1115611feb57604083901c92506040810190505b6000602084901c111561200657602083901c92506020810190505b6000601084901c111561202157601083901c92506010810190505b6000600884901c111561203c57600883901c92506008810190505b6000600484901c111561205757600483901c92506004810190505b6000600284901c111561207257600283901c92506002810190505b6000600184901c1115612086576001810190505b80915050919050565b600081831061209e57816120a0565b825b905092915050565b600073ffffffffffffffffffffffffffffffffffffffff168373ffffffffffffffffffffffffffffffffffffffff16036120fa5780600260008282546120ee9190612a1b565b925050819055506121cd565b60008060008573ffffffffffffffffffffffffffffffffffffffff1673ffffffffffffffffffffffffffffffffffffffff16815260200190815260200160002054905081811015612186578381836040517fe450d38c00000000000000000000000000000000000000000000000000000000815260040161217d939291906130a8565b60405180910390fd5b8181036000808673ffffffffffffffffffffffffffffffffffffffff1673ffffffffffffffffffffffffffffffffffffffff16815260200190815260200160002081905550505b600073ffffffffffffffffffffffffffffffffffffffff168273ffffffffffffffffffffffffffffffffffffffff16036122165780600260008282540392505081905550612263565b806000808473ffffffffffffffffffffffffffffffffffffffff1673ffffffffffffffffffffffffffffffffffffffff168152602001908152602001600020600082825401925050819055505b8173ffffffffffffffffffffffffffffffffffffffff168373ffffffffffffffffffffffffffffffffffffffff167fddf252ad1be2c89b69c2b068fc378daa952ba7f163c4a11628f55a4df523b3ef836040516122c091906122e6565b60405180910390a3505050565b6000819050919050565b6122e0816122cd565b82525050565b60006020820190506122fb60008301846122d7565b92915050565b600081519050919050565b600082825260208201905092915050565b60005b8381101561233b578082015181840152602081019050612320565b60008484015250505050565b6000601f19601f8301169050919050565b600061236382612301565b61236d818561230c565b935061237d81856020860161231d565b61238681612347565b840191505092915050565b600060208201905081810360008301526123ab8184612358565b905092915050565b600080fd5b600073ffffffffffffffffffffffffffffffffffffffff82169050919050565b60006123e3826123b8565b9050919050565b6123f3816123d8565b81146123fe57600080fd5b50565b600081359050612410816123ea565b92915050565b61241f816122cd565b811461242a57600080fd5b50565b60008135905061243c81612416565b92915050565b60008060408385031215612459576124586123b3565b5b600061246785828601612401565b92505060206124788582860161242d565b9150509250929050565b60008115159050919050565b61249781612482565b82525050565b60006020820190506124b2600083018461248e565b92915050565b6000806000606084860312156124d1576124d06123b3565b5b60006124df86828701612401565b93505060206124f086828701612401565b92505060406125018682870161242d565b9150509250925092565b600060ff82169050919050565b6125218161250b565b82525050565b600060208201905061253c6000830184612518565b92915050565b600060208284031215612558576125576123b3565b5b600061256684828501612401565b91505092915050565b600060208284031215612585576125846123b3565b5b60006125938482850161242d565b91505092915050565b60006125a7826123b8565b9050919050565b6125b78161259c565b82525050565b60006020820190506125d260008301846125ae565b92915050565b6125e1816123d8565b82525050565b60006020820190506125fc60008301846125d8565b92915050565b6000819050919050565b600061262761262261261d846123b8565b612602565b6123b8565b9050919050565b60006126398261260c565b9050919050565b600061264b8261262e565b9050919050565b61265b81612640565b82525050565b60006020820190506126766000830184612652565b92915050565b60006126878261262e565b9050919050565b6126978161267c565b82525050565b60006020820190506126b2600083018461268e565b92915050565b600080604083850312156126cf576126ce6123b3565b5b60006126dd8582860161242d565b92505060206126ee8582860161242d565b9150509250929050565b6000806040838503121561270f5761270e6123b3565b5b600061271d85828601612401565b925050602061272e85828601612401565b9150509250929050565b7f4e487b7100000000000000000000000000000000000000000000000000000000600052601160045260246000fd5b6000612772826122cd565b915061277d836122cd565b925082820390508181111561279557612794612738565b5b92915050565b60006127a6826122cd565b91506127b1836122cd565b92508282026127bf816122cd565b915082820484148315176127d6576127d5612738565b5b5092915050565b7f4e487b7100000000000000000000000000000000000000000000000000000000600052601260045260246000fd5b6000612817826122cd565b9150612822836122cd565b925082612832576128316127dd565b5b828204905092915050565b7f4e487b7100000000000000000000000000000000000000000000000000000000600052602260045260246000fd5b6000600282049050600182168061288457607f821691505b6020821081036128975761289661283d565b5b50919050565b60008160011c9050919050565b6000808291508390505b60018511156128f4578086048111156128d0576128cf612738565b5b60018516156128df5780820291505b80810290506128ed8561289d565b94506128b4565b94509492505050565b60008261290d57600190506129c9565b8161291b57600090506129c9565b8160018114612931576002811461293b5761296a565b60019150506129c9565b60ff84111561294d5761294c612738565b5b8360020a91508482111561296457612963612738565b5b506129c9565b5060208310610133831016604e8410600b841016171561299f5782820a90508381111561299a57612999612738565b5b6129c9565b6129ac84848460016128aa565b925090508184048111156129c3576129c2612738565b5b81810290505b9392505050565b60006129db826122cd565b91506129e68361250b565b9250612a137fffffffffffffffffffffffffffffffffffffffffffffffffffffffffffffffff84846128fd565b905092915050565b6000612a26826122cd565b9150612a31836122cd565b9250828201905080821115612a4957612a48612738565b5b92915050565b7f50756d7046756e20616c726561647920696e697469616c697a65640000000000600082015250565b6000612a85601b8361230c565b9150612a9082612a4f565b602082019050919050565b60006020820190508181036000830152612ab481612a78565b9050919050565b7f426f6e64696e6720637572766520706861736520656e64656400000000000000600082015250565b6000612af160198361230c565b9150612afc82612abb565b602082019050919050565b60006020820190508181036000830152612b2081612ae4565b9050919050565b600081519050612b36816123ea565b92915050565b600060208284031215612b5257612b516123b3565b5b6000612b6084828501612b27565b91505092915050565b600081905092915050565b50565b6000612b84600083612b69565b9150612b8f82612b74565b600082019050919050565b6000612ba582612b77565b9150819050919050565b7f466565207472616e7366657220746f206665655265636569766572206661696c60008201527f6564000000000000000000000000000000000000000000000000000000000000602082015250565b6000612c0b60228361230c565b9150612c1682612baf565b604082019050919050565b60006020820190508181036000830152612c3a81612bfe565b9050919050565b7f4e6f7420656e6f756768204554482073656e7400000000000000000000000000600082015250565b6000612c7760138361230c565b9150612c8282612c41565b602082019050919050565b60006020820190508181036000830152612ca681612c6a565b9050919050565b600060e082019050612cc2600083018a6125d8565b612ccf602083018961248e565b612cdc60408301886122d7565b612ce960608301876122d7565b612cf660808301866122d7565b612d0360a08301856122d7565b612d1060c08301846122d7565b98975050505050505050565b6000819050919050565b6000612d41612d3c612d3784612d1c565b612602565b6122cd565b9050919050565b612d5181612d26565b82525050565b600060c082019050612d6c60008301896125d8565b612d7960208301886122d7565b612d866040830187612d48565b612d936060830186612d48565b612da060808301856125d8565b612dad60a08301846122d7565b979650505050505050565b600081519050612dc781612416565b92915050565b600080600060608486031215612de657612de56123b3565b5b6000612df486828701612db8565b9350506020612e0586828701612db8565b9250506040612e1686828701612db8565b9150509250925092565b7f4e6f20746f6b656e7320736f6c64207965740000000000000000000000000000600082015250565b6000612e5660128361230c565b9150612e6182612e20565b602082019050919050565b60006020820190508181036000830152612e8581612e49565b9050919050565b7f496e73756666696369656e742062616c616e6365000000000000000000000000600082015250565b6000612ec260148361230c565b9150612ecd82612e8c565b602082019050919050565b60006020820190508181036000830152612ef181612eb5565b9050919050565b7f50726963652062656c6f7720616c6c6f77656420736c69707061676500000000600082015250565b6000612f2e601c8361230c565b9150612f3982612ef8565b602082019050919050565b60006020820190508181036000830152612f5d81612f21565b9050919050565b7f455448207472616e73666572206661696c656400000000000000000000000000600082015250565b6000612f9a60138361230c565b9150612fa582612f64565b602082019050919050565b60006020820190508181036000830152612fc981612f8d565b9050919050565b7f5072696365206578636565647320616c6c6f77656420736c6970706167650000600082015250565b6000613006601e8361230c565b915061301182612fd0565b602082019050919050565b6000602082019050818103600083015261303581612ff9565b9050919050565b7f4d61782045544820616d6f756e74207265616368656400000000000000000000600082015250565b600061307260168361230c565b915061307d8261303c565b602082019050919050565b600060208201905081810360008301526130a181613065565b9050919050565b60006060820190506130bd60008301866125d8565b6130ca60208301856122d7565b6130d760408301846122d7565b949350505050565b60006060820190506130f460008301866125d8565b61310160208301856125d8565b61310e60408301846122d7565b94935050505056fea2646970667358221220d35837d37939f486c7017727076c04673ecb9975252633f683b56f54bddb52ec64736f6c63430008180033",
  "linkReferences": {},
  "deployedLinkReferences": {}
}